:020000040800F2
:10000000680E0020010100087B1D00084F1B00083E
:10001000791D0008E7010008A73A00080000000069
:100020000000000000000000000000009320000815
:10003000F50100080000000091200008952000084C
:100040001B0100081B0100081B0100081B01000820
:100050001B0100081B0100081B0100081B01000810
:100060001B0100081B0100081B0100081B01000800
:100070001B0100081B0100081B0100081B010008F0
:100080001B0100081B0100081B0100081B010008E0
:10009000313A00081B0100081B0100081B01000881
:1000A0001B0100081B0100081B0100081B010008C0
:1000B0001B0100081B010008112100081B0100089A
:1000C0001B0100081B0100081B0100081B010008A0
:1000D0001B0100081B0100081B0100081B01000890
:1000E0001B0100081B0100081B010008DFF80CD0F1
:1000F00000F03CF8004800473D3D0008680E002035
:100100000648804706480047FEE7FEE7FEE7FEE7B1
:10011000FEE7FEE7FEE7FEE7FEE7FEE70F21000849
:10012000ED00000840EA01039B0703D009E008C97D
:10013000121F08C0042AFAD203E011F8013B00F8AC
:10014000013B521EF9D27047D2B201E000F8012BF8
:10015000491EFBD270470022F6E710B513460A4647
:1001600004461946FFF7F0FF204610BD064C074D28
:1001700006E0E06840F0010394E807009847103477
:10018000AC42F6D3FFF7B6FFA43F0008C43F000817
:1001900070B58C1810F8015B15F0070301D110F849
:1001A000013B2A1106D110F8012B03E010F8016B76
:1001B00001F8016B5B1EF9D12B0705D40023521EF9
:1001C0000DD401F8013BFAE710F8013BCB1A921C61
:1001D00003E013F8015B01F8015B521EF9D5A1425F
:1001E000D8D3002070BDFEE7002070470020704784
:1001F00000207047704772B6FEE700002DE9F84F07
:10020000DFF8B891002409F1040A0AF1040B23462F
:100210000F270BF1040EC9E00125A5402A40AA4290
:100220007DD1674ED1F804C0ACEB0608B44532D09E
:1002300014DCBCF1030F3AD009DCBCF1000F2AD06A
:10024000BCF1010F1CD0BCF1020F31D11DE0BCF19B
:10025000110F17D0BCF1120F2AD119E0B8F5881F81
:1002600019D006DCB8F5803F15D0B8F5801F1FD136
:1002700011E0B8F5001F0ED0B8F5041F18D10AE040
:10028000CB6815E0CB681B1D12E0CB6808330FE08C
:10029000CB680C330CE08B682BB1012B4FF00803BB
:1002A00003D0456104E0042302E0056100E000237F
:1002B000FF2A01D8064601E000F104064FEA840552
:1002C00001D9A5F12005D6F8008007FA05FC28EA37
:1002D0000C0803FA05F548EA0508C6F800804D68E1
:1002E000ED0062D5374DAE6946F00106AE61AD69ED
:1002F00024F0030605F001050095334D06EB050CCF
:10030000DCF80850A607360F07FA06F825EA0805B4
:10031000DFF8B880404503D14FF0000817E044E013
:10032000DFF8AC80404502D14FF001080FE0DFF864
:10033000A480404502D14FF0020808E0DFF8988021
:10034000404502D14FF0030801E04FF0040808FADD
:1003500006F848EA0508CCF808804D68D9F800602E
:10036000ED034D4601D5164300E096432E604D68DF
:10037000DAF80060AD03554601D5164300E0964318
:100380002E604D68DBF80060ED025D4601D5164336
:1003900000E096432E604D68DEF80060AD027546C1
:1003A00001D5164300E096432E60641C0D682A4672
:1003B000E5407FF431AFBDE8F88F00000004014054
:1003C0000000111000100240000001400008014030
:1003D000000C014000100140001401400AB101610D
:1003E00070470904FBE7000001488068704700007F
:1003F000040000200248816802781144816070473F
:1004000004000020074810B5016841F010010160A8
:10041000032000F06DF80F2000F006F800F024F83B
:10042000002010BD0020024070B50D4D04464FF471
:100430007A712878B1FBF0F00A490968B1FBF0F055
:1004400001F0B2F848B9102C07D200222146501E04
:1004500000F02EF800206C6070BD012070BD00001F
:100460000400002010000020094808B5816941F00F
:1004700001018161816901F001010091C16941F0CF
:100480008051C161C06900F08050009008BD00003B
:1004900000100240002809DB00F01F0201219140FA
:1004A0004009800000F1E020C0F800117047000012
:1004B000F0B40E4B1B680C46C3F30223C3F10705CF
:1004C000042D00D90425191D072901D2002300E0BD
:1004D000DB1E012606FA05F1491E214099409E4087
:1004E000761E16403143F0BC03F0E6BA0CED00E096
:1004F000064900F0070208684FF6FF03184040EA7B
:100500000220034A10430860704700000CED00E031
:100510000000FA0510B50C0607D501F0070101EB44
:10052000810100EBC100283005E001EB810100EB07
:10053000C10000F5B47099B232B101220273018199
:10054000190C4181002010BD00220273C180F9E71F
:10055000704701EB810200EBC202D0F8E802D26BD7
:1005600002F0CDB901EB810200EBC202D0F8E80243
:10057000D2F87C2102F026BA70B504460B0601F0D1
:10058000070000EB800104EBC1014FF001024FF0C6
:10059000000503D581F82920283103E081F869514D
:1005A00001F5B471087094F8A802012808D084F805
:1005B000A822206802F03AFE84F8A852002070BDFC
:1005C000022070BD70B5044601F00F0062689042D1
:1005D00001D9012070BD0B0601F0070000EB80017E
:1005E00004EBC1014FF001024FF0000503D581F883
:1005F0002920283103E081F8695101F5B4718D702B
:10060000087094F8A802012808D084F8A82220686D
:1006100002F0A9FE84F8A852002070BD022070BD2F
:100620002DE9F05F04685FEA424C0B788D69B4F8FD
:1006300050C04FF000064BF68F7948F2800A48F61A
:100640008F7B48F2C00E4FF480672AD54FF0020826
:1006500008EBC308C44407EB4C07E45BC4F309048C
:10066000A54203D32D1B8D6101D00BE08E6106687E
:1006700036F8235005EA090585F4005545EA0A05D0
:1006800026F82350520609D50D78036833F8252043
:1006900002EA0B0242EA0E0223F8252084B30A89FB
:1006A00029E04FF0060808EBC308C44407EB4C07E9
:1006B000E45BC4F30904A54203D32D1B8D6101D073
:1006C0000BE08E61066836F8235005EA090585F4CB
:1006D000005545EA0A0526F82350520609D40B783E
:1006E000056835F8232002EA0B0242EA0E0225F8DB
:1006F00023202CB14A8949690068234603F0A2F9F6
:100700002046BDE8F09F2DE9F05F054600680C46E5
:100710005FEA426C16468B692278B0F850C048F602
:100720008F774CF280094FF6FF7B4FF4004E4FF469
:10073000806A4FF000017BD54FF0020808EBC20839
:10074000E0440AEB480C30F80C00C0F30900834287
:1007500011D91B1AA3610FD0730407D52E6836F880
:1007600022303B4043EA090326F8223094F8242043
:10077000012A50D04EE1A161607810B1012813D058
:100780001AE02868B0F85030184400EB0210B0F8B6
:10079000042422F4F842A0F80424B0F8042442F41B
:1007A0000042A0F8042407E02868B0F8503018444C
:1007B00000EB0210A0F804146278286812B1012A34
:1007C00011D018E0B0F850100844217800EB011067
:1007D000B0F80C1421F4F841A0F80C14B0F80C1483
:1007E00041F4004105E0B0F850201044227800EBBD
:1007F0000210A0F80C1421782846FFF7AAFE700416
:10080000B8D521782A6832F82100384040EA09003A
:1008100022F82100FEE0626902446261E26902445A
:10082000E2612369226A9A4203D31846111A04E04E
:1008300038E084F824100AB110462162617811B1C1
:10084000012923D02BE02968B1F8502011442278E7
:1008500001EB021101F2044148B13E280FD84208D1
:10086000C30700D0521C0BEA82220A8017E00A88D4
:1008700022F4F8420A800A8842F40042F5E742096D
:10088000C30600D1521E4EEA8222EEE72968B1F873
:1008900050201144227801EB0211A1F8040483B224
:1008A0002289B3E04FF0060808EBC208E0440AEBE7
:1008B000480C30F80C00C0F30900834211D31B1A16
:1008C000A3610FD0730407D42E6836F822303B4062
:1008D00043EA090326F8223094F82420012A50D054
:1008E00098E0A161607810B1012813D01AE028685F
:1008F000B0F85030184400EB0210B0F8042422F491
:10090000F842A0F80424B0F8042442F40042A0F80D
:10091000042407E02868B0F85030184400EB0210B7
:10092000A0F804146278286812B1012A11D018E0E6
:10093000B0F850100844217800EB0110B0F80C1406
:1009400021F4F841A0F80C14B0F80C1441F4004163
:1009500005E0B0F850201044227800EB0210A0F817
:100960000C1421782846FFF7F4FD700452D4227845
:10097000296831F82200384040EA090021F82200B5
:1009800048E0626902446261E2690244E26123690B
:10099000226A9A4203D31846111A216204E00AB16E
:1009A0001046216284F824106278296812B1012A65
:1009B00022D029E0B1F850201144227801EB021135
:1009C00001F20C4148B13E280FD84208C30700D0BD
:1009D000521C0BEA82220A8016E00A8822F4F842AE
:1009E0000A800A8842F40042F5E74209C30600D1B2
:1009F000521E4EEA8222EEE7B1F8502011442278CE
:100A000001EB0211A1F80C04628983B261692868C4
:100A100003F036F821782A6832F8210048F6BF73CF
:100A2000184080F0300048F28003184322F821007B
:100A30000020BDE8F09F2DE9F04104460F0601F0CB
:100A4000070000EB800104EBC1014FF001064FF0FD
:100A5000000503D581F82960283103E081F8695148
:100A600001F5B47108700A61CB704A7802B1C8818F
:100A7000022B00D10D7194F8A802012809D084F846
:100A8000A862206802F0A4FA284684F8A852BDE8BB
:100A9000F0810220FBE770B50C4601F0070505EB7D
:100AA000850100EBC101C1E95F230022C1F8842167
:100AB00081F8692181F8685101F5B4716207006815
:100AC00002F0A6FC002070BD70B504460D4601F092
:100AD00007006168884201D9012070BD29064FF0E6
:100AE00000064FF0010207D500EB800104EBC101C5
:100AF00081F82920283107E005EB850104EBC101CD
:100B000081F8696101F5B4718A70087094F8A802DF
:100B1000012807D084F8A822206802F060FC68074A
:100B200002D006E0022070BD04F52C71206802F0AE
:100B300018FC84F8A862002070BD70B50C4601F066
:100B4000070505EB850100EBC101C1E90F23012277
:100B500081F84C208B6400234B6481F8292001F834
:100B6000285F6207006802F053FC002070BD1FB5CB
:100B70000446006802F062FF000402D5204601F03E
:100B8000FDF8206802F05AFF40050CD5206830F8C7
:100B9000441F21F480610180204600F01FF90021EC
:100BA000204600F036F9206802F048FF400405D5E1
:100BB000206830F8441F21F480410180206802F051
:100BC0003DFF800405D5206830F8441F21F4005112
:100BD0000180206802F032FFC00414D5206830F88C
:100BE000401F21F004010180206830F8401F21F0EF
:100BF00008010180204600F004F9206830F8441F05
:100C000021F480510180206802F018FF00053ED5D4
:100C100022680020694632F8203021F81030401C4C
:100C2000C0B20828F7D332F8400F40F0010010801E
:100C3000206830F8402F22F0010202802068B0F8CE
:100C400044205205FBD530F8442F22F48062028004
:100C50000020236831F8102023F82020401CC0B267
:100C60000828F6D3206830F8401F41F008010180C1
:100C7000206830F8441F21F400610180206830F8BA
:100C8000401F41F004010180204600F0F7F8206881
:100C900002F0D4FE800508D5206830F8441F21F406
:100CA00000710180204600F0B0F8206802F0C6FE16
:100CB000C00505D5206830F8441F21F480710180FB
:100CC0001FBD00002DE9F04186B0040004D094F867
:100CD000A902002520B108E0012006B0BDE8F0819E
:100CE00084F8A852204600F05BF8032084F8A9029B
:100CF000206802F02FFB04F1100114228846684698
:100D0000FFF710FA94E80F0002F08EFA0226D0BB2B
:100D10000021206802F0ACFE002001270FE000BF98
:100D200000EB800104EBC10181F8297001F8280F64
:100D3000C881CD700D614D61401CC0B28D6161688C
:100D40008142EDD8002011E000EB800104EBC101ED
:100D500081F8695181F8680181F86B51C1F87851C7
:100D6000C1F87C51401CC0B2C1F880516168814219
:100D7000EAD8142241466846FFF7D4F994E80F00F8
:100D800002F0DFFA10B184F8A962A5E784F82450D4
:100D900084F8A972206802F0D2FA00209DE70000D2
:100DA00008B500680B49884212D10B48C16941F46B
:100DB0000001C161C069002200F4000000901146EA
:100DC0001420FFF775FBBDE808401420FFF762BB55
:100DD00008BD0000005C00400010024070B50446F1
:100DE00080680125022801D0FFF705FA2946D4F8CA
:100DF000E80201F0C4FED4F8E802BDE8704001F05A
:100E000080BED0F8E80201F0A4BED0F8E80201F0FC
:100E1000AABE10B5044690F8A80201280BD0012004
:100E200084F8A80284F82410206802F023FE002031
:100E300084F8A80210BD022010BDD0F8E82200F509
:100E40002C71104601F0A7BE10B5044690F8A80218
:100E5000012810D0012084F8A802206802F0DEFDED
:100E600001212046FFF774FB206802F066FA00209B
:100E700084F8A80210BD022010BD000010B5044681
:100E8000D0F8E80201F0C6FEA069002804D00348AB
:100E9000016841F00601016010BD000010ED00E0A6
:100EA0002DE9F84305460078354CC00754D0E06979
:100EB0000026C00008D4E06940F08050E061E0699D
:100EC000012600F0805000902E480168C90512D418
:100ED0000168804641F480710160FFF785FA07469A
:100EE00005E000BFFFF780FAC01B642823D8D8F8BC
:100EF0000000C005F6D5206A10F4407021D0A98802
:100F000001F4407181421CD0206A1F49012220F463
:100F100040700A6000220A602062C00711D0FFF70B
:100F200063FA074641F2883808E000BFFFF75CFA31
:100F3000C11B414502D90320BDE8F883206A800720
:100F4000F4D5206A696820F44070084320621EB11D
:100F5000E06920F08050E0612878800705D560685E
:100F6000A96820F44040084360602878C00605D591
:100F70006068E96820F48000084360600020DBE7D7
:100F80000010024000700040400442422DE9F0474A
:100F90000F46050061D0434E306800F00700B842AC
:100FA00009D2306820F0070038433060306800F024
:100FB0000700B84251D128683B4C810712D5400741
:100FC00003D5606840F4E06060602878000703D5CE
:100FD000606840F4605060606068A96820F0F000CC
:100FE000084360602878C00728D06868012810D0BE
:100FF0002168022810D0890700292EDA616821F0C3
:10100000030101436160FFF7EFF9804641F288393F
:101010000DE021688903EFE78901EDE7FFF7E4F9C7
:10102000A0EB0801494502D90320BDE8F0876068BC
:10103000696800F00C00B0EB810FEFD1306800F070
:101040000700B8420BD9306820F007003843306001
:10105000306800F00700B84201D00120E5E72878A9
:10106000400705D56068E96820F4E06008436060E7
:101070002878000706D56068296920F4605040EAA6
:10108000C100606000F038F86168084AC1F30311DC
:10109000515CC8400649086006480068FFF7C4F97B
:1010A0000020C2E700200240001002408A3F0008F2
:1010B0001000002008000020044805490068496825
:1010C000044AC1F30221515CC8407047100000205F
:1010D000001002409A3F000804480549006849682A
:1010E000044AC1F3C221515CC8407047100000207F
:1010F000001002409A3F000812A185B00FC98DE888
:101100000F0014A0144A006804905168134801F0BD
:101110000C03042B10D0082B0ED1C1F38343C90359
:101120001DF803000AD5516804AAC1F34041515C7F
:101130000A4A5043B0FBF1F005B0704708494843F4
:10114000FAE7000002030405060708090A0B0C0D64
:101150000E0F1010010200000010024000127A0071
:1011600000093D002DE9F84F040070D02078C04DF3
:10117000C00749D06868C0F38100012807D06868BB
:10118000C0F38100022809D16868C00306D5286829
:10119000800339D560680028E7D035E06068B0F595
:1011A000803F0BD010B1B0F5A02F11D0286820F4EB
:1011B00080302860286820F4802002E0286840F40D
:1011C00080302860606890B1FFF70EF906460AE0AB
:1011D000286840F480202860F0E700BFFFF704F99A
:1011E000801B642873D828688003F7D50CE0FFF7CC
:1011F000FBF8064605E000BFFFF7F6F8801B642801
:10120000F0D828688003F7D420789A4E80074FF0F2
:1012100001094FF0000839D5686810F00C0F07D0AD
:101220006868C0F38100022809D16868C00306D449
:101230002868800714D52069012808D110E02069AA
:10124000B0B1C6F80090FFF7CFF8074605E00AE115
:10125000FFF7CAF8C01B0228C4D828688007F7D552
:101260002868616920F0F80040EAC10028600DE0BC
:10127000C6F80080FFF7B8F8074604E0FFF7B4F8B7
:10128000C01B022823D828688007F7D420780007DD
:101290002CD57948A169D9B1C0F80090FFF7A4F81E
:1012A000074604E0FFF7A0F8C01B02280FD8686AC1
:1012B0008007F7D571484FF4FA510068B0FBF1F0A0
:1012C000009000BF0098411E0091FAD20EE080E02D
:1012D000C0F80080FFF788F8074604E0FFF784F8BD
:1012E000C01B022875D8686A8007F7D420784007A9
:1012F00060D5E8690027C00008D4E86940F0805054
:10130000E861E869012700F0805000905C480168BE
:10131000C90513D40168834641F480710160FFF769
:1013200063F8824606E000BFFFF75EF8A0EB0A0014
:1013300064284ED8DBF80000C005F5D5E068012828
:101340000AD008B1052813D0286A20F001002862CD
:10135000286A20F0040002E0286A40F001002862B8
:10136000E06841F2883B98B1FFF73EF882460BE017
:10137000286A40F004002862EEE700BFFFF734F867
:10138000A0EB0A0159455AD8286A8007F6D50CE027
:10139000FFF72AF8824605E0FFF726F8A0EB0A01DE
:1013A00059454CD8286A8007F6D41FB1E86920F067
:1013B0008050E861E06988B36968C1F3810102295E
:1013C00044D00228C6F8608004D0FFF70DF8044628
:1013D00038E034E0FFF708F8074604E0FFF704F8C8
:1013E000C01B02282BD828688001F7D4206AB0F5EA
:1013F000803F05D16868A16820F400300843686028
:10140000D4E908010843696821F47411084368604D
:10141000C6F86090FEF7E8FF044606E025E000BF4E
:10142000FEF7E2FF001B022809D828688001F7D5E3
:101430001BE000BFFEF7D8FF001B022802D90320E3
:10144000BDE8F88F28688001F4D40EE00128F7D0B9
:101450006868226A00F48031914204D1616A00F424
:101460007010884201D00120EAE70020E8E7000080
:10147000001002400000424280044242100000205E
:101480000070004070B5040009D0606A002540B1CA
:1014900025616561A56294F8510040B10CE001201E
:1014A00070BD6068B0F5827FF4D0E561F2E784F842
:1014B0005050204600F040F8022084F85100206887
:1014C000016821F040010160A088218900F4827048
:1014D00001F404410843A18901F400610843217C1F
:1014E00001F002010843217D01F001010843218B35
:1014F00001F400710843217F01F03801084394F89A
:10150000201001F080010843218D01F400510843AF
:1015100021680860A069042101EA10402168486040
:101520002068C16921F40061C1616565012084F80A
:101530005100002070BD000030B585B0002400943B
:1015400001940294039400681449884223D11448FA
:10155000816941F480518161816901F48051049174
:10156000816941F00401816180690E4D00F0040041
:1015700004902020009002200190032003906946EF
:101580002846FEF73BFE4020CDE900046946284688
:101590000294FEF733FE05B030BD0000003001407C
:1015A000001002400008014010B5401EB0F1807FDD
:1015B00001D3012010BD4FF0E02460610F216017BE
:1015C00002F07AFA0020A06107202061002010BDFF
:1015D0007047704770B590F83C20012A26D001244E
:1015E00080F83C40022280F83D2003685A689D68DC
:1015F00022F070060A6832435A600D4B02689A4224
:1016000008D0B2F1804F05D00A4B9A4202D00A4B63
:101610009A4204D1496825F080031943916080F80B
:101620003D40002180F83C10084670BD022070BD8E
:10163000002C0140000400400008004010B50400E8
:1016400003D094F83D0010B107E0012010BD002048
:1016500084F83C00204600F01FF8022084F83D008A
:10166000211D206800F05EFD012084F8460084F80A
:101670003E0084F83F0084F8400084F8410084F87C
:10168000420084F8430084F8440084F8450084F85C
:101690003D00002010BD000008B500680B498842DD
:1016A00012D10B48C16941F00401C161C069002237
:1016B00000F00400009011461E20FEF7F9FEBDE880
:1016C00008401E20FEF7E6BE08BD000000080040EE
:1016D0000010024090F83D10012901D00120704710
:1016E000022180F83D100168CA6842F00102CA6018
:1016F00000680B49884208D0B0F1804F05D00949F5
:10170000884202D00849884204D1816801F007016B
:10171000062903D0016841F00101016000207047F3
:10172000002C0140000400400008004070B5044651
:1017300090F83C00012817D0012584F83C50022085
:1017400084F83D002068826822F0770222F47F420C
:1017500082600868502830D00DDC20284DD005DC90
:1017600098B310283BD148E0022070BD302844D007
:10177000402834D139E0602828D0702806D0B0F550
:10178000805F2CD0B0F5005F29D10AE0CB68D1E9A9
:101790000121206800F0FCFC2068816841F077019D
:1017A00009E0CB68D1E90121206800F0F1FC206854
:1017B000816841F48041816011E0CA68496820680D
:1017C00000F03BFD5021206807E016E0CA68496838
:1017D000206800F043FD6021206800F0E3FC84F8FD
:1017E0003D50002084F83C0070BDCA6849682068FC
:1017F00000F023FD40212068EFE7226801461046F3
:10180000EBE7704770B50446006801694FF00005CA
:10181000C943890715D4C168C943890711D4E91E92
:10182000016101202077206880698007204602D06E
:10183000FFF7E7FF04E000F098F8204600F096F884
:10184000257720680169C943490717D4C168C9438E
:10185000490713D46FF0040101610220207720684A
:10186000806910F4407F204602D0FFF7CAFF04E0F1
:1018700000F07BF8204600F079F8257720680169B0
:10188000C943090716D4C168C943090712D46FF0C8
:1018900008010161042020772068C0698007204684
:1018A00002D0FFF7AEFF04E000F05FF8204600F042
:1018B0005DF8257720680169C943C90617D4C16856
:1018C000C943C90613D46FF01001016108202077C5
:1018D0002068C06910F4407F204602D0FFF791FFD6
:1018E00004E000F042F8204600F040F82577206838
:1018F0000169C943C90708D1C168C943C90704D1EF
:10190000891E0161204600F032F820680169C94350
:10191000090609D4C168C943090605D46FF08001DE
:1019200001612046FFF754FE20680169C94349065A
:1019300009D4C168C943490605D46FF0400101616B
:10194000204600F040F820680169C94389060BD49D
:10195000C168C943890607D46FF0200101612046A0
:10196000BDE87040FFF735BE70BD704770477047E7
:1019700070B5044690F83C00012812D0012584F887
:101980003C50022084F83D00204600F013FC01008A
:101990004FF0000007D084F83D5084F83C0001204F
:1019A00070BD022070BD2168CA6822F04002CA6082
:1019B0002168CA6822F48042CA6084F83D5084F8E5
:1019C0003C00002070BD704770B5040004D094F84E
:1019D0003D00002510B106E0012070BD84F83C50A8
:1019E000204600F023F8242084F83D002068C168D8
:1019F00021F40051C160204600F042FC20680169DA
:101A000021F4904101612068416921F02A0141617E
:101A10002068C16841F40051C1602564202084F829
:101A20003D0084F83E00002070BD000030B585B058
:101A3000002400940194029403940068144988429D
:101A400024D11448816941F480418161816901F4A4
:101A500080410491816941F00401816180690E4DEA
:101A600000F0040004904FF40070009002200190F8
:101A70000320039069462846FEF7C0FB2815CDE9F0
:101A80000004694628460294FEF7B8FB05B030BD55
:101A90000038014000100240000801402DE9F843E1
:101AA000044690F83D001F4616460D4620284CD1AE
:101AB000C5B1BEB194F83C00012846D0012084F89D
:101AC0003C004FF00008C4F84080212084F83D001D
:101AD000FEF78AFCA6848146E684A068B0F5805FA4
:101AE00003D004E00120BDE8F883206928B12E4628
:101AF0005FF0000584F83C800EE00026FAE78021C4
:101B0000204600F019FCA0B9AEB116F8010B21680F
:101B10004860E08C401EE084E08C4B464FF00002B1
:101B200000970028EBD14FF04001204600F004FC64
:101B300030B10320D7E735F8020BC0F30800E6E721
:101B4000202084F83D000020CDE70220CBE7FEE70F
:101B5000F0B500230A24302537261F4611E000BFC8
:101B6000B4EB107F02D905EB107C01E006EB107C92
:101B700001F813C001EB430C00015B1C8CF80170F1
:101B8000DBB29342ECD3F0BD70B586B000242048A0
:101B90000094019402940394816941F020018161D1
:101BA000816901F020010491816941F004018161A2
:101BB000816901F004010491816941F008018161AA
:101BC000816901F008010491816941F0010181619D
:101BD000806900F0010004900E48416821F0E06146
:101BE00041F0007141600C4E4FF48C750022294683
:101BF0003046FEF7F3FB01200095CDE901040220F9
:101C0000039069463046FEF7F9FA06B070BD000051
:101C10000010024000000140000C0140114810B5C6
:101C20000F4901604FF4827141604FF4806181601F
:101C300000210222C0E903121202C0E90512182293
:101C4000C0E90721416281620A21C162FFF71AFCE3
:101C5000002803D0BDE81040FEF7CDBA10BD00004B
:101C600000300140B401002010B58CB00024059470
:101C700006940794142168460894FEF76CFA1A48F3
:101C8000099418490A9401604721C0E9011440F2FF
:101C9000E731C0E9031480218161FFF7CFFC08B16F
:101CA000FEF7A9FA4FF48050059005A90E48FFF7FA
:101CB0003DFD08B1FEF79FFA009469460A48019479
:101CC000FFF756FE08B1FEF796FA099409A90648EF
:101CD0000A94FFF77FFC002801D0FEF78CFA0CB0C5
:101CE00010BD0000000800400C0200200C4810B598
:101CF0000A4901604FF4E1314160002181600C220A
:101D0000C160C0E904128161C161FFF75DFE002876
:101D100003D0BDE81040FEF76EBA10BD0038014098
:101D20005402002010B500220F49104800F0C0FDF9
:101D300008B1FEF760FA0E490C4800F091FF08B1B7
:101D4000FEF759FA0B49094800F0AFFB08B1FEF75E
:101D500052FA064800F0DAFF002803D0BDE8104030
:101D6000FEF749BA10BD00001400002098020020C0
:101D7000B4000020A0000020FEE7FEE72DE9F84FA8
:101D8000044640F68F7B48F60F7A4FF002094FF475
:101D9000806874E1B0F8441011F00F063AD030F8C2
:101DA000267039047DD530F8261001EA0B0141F088
:101DB000800120F8261006EB860004EBC00595F89C
:101DC000740105F5B47500286CD0E87802286AD053
:101DD0002878226832F8201048F68F73194048F2AC
:101DE000C003194322F820102878D4F800C03CF82A
:101DF0002010BCF8502049047ED509EBC000111812
:101E000008EB41003CF800008005800D009074D084
:101E10002A89D8E0C9062DD4018801EA0A0141F4D3
:101E200000410180216804F12805B1F850202B7889
:101E300009EBC300024408EB4200085AC0F3090052
:101E40006064E16B0844E06300212046FEF781FBFB
:101E500094F8240000289CD0A869002899D194F80F
:101E60002400216840F08000A1F84C00002084F894
:101E7000240004E1018804F5B4750A0521D5B0F801
:101E800050202B78062101EBC3010A4408EB4201E4
:101E9000405A04F52C71C0F30903EB61EA8820680D
:101EA00002E0ACE068E07AE001F0CCFD216808884F
:101EB00000EA0B0040F0800008802046FEF7BDFFDE
:101EC000DDE00904D5D5018801EA0B0141F080016C
:101ED00001802068B0F850202B78062101EBC30167
:101EE0000A4408EB4201405A83059B0DEB6110D078
:101EF000696971B1EA8801E058E056E0206801F0B4
:101F0000A1FDE96968690844686100212046FEF77F
:101F100029FB2068018809052DD4B0F85010084429
:101F2000296900F20C4051B13E2910D84A08C9076E
:101F300000D0521C4FF6FF7101EA82210FE00188A8
:101F400021F4F8410180018841F4004107E04A0989
:101F5000C90600D1521E4FF4004141EA822101809E
:101F6000206801884BF68F72114081F4405148F28D
:101F700080021143018082E0D4F800C0BCF8501008
:101F80002A78062000EBC200014408EB41003CF82F
:101F900000008005800D00901AD0EA8813E03A46D0
:101FA00029462046FEF73CFB009011E0062101EB9C
:101FB000C000111808EB41003CF800008005800DBE
:101FC000009005D06A8903466046696901F03AFDD0
:101FD000E96900980844E861696900980844686103
:101FE000A86918B129690098814204D92978204646
:101FF000FEF7B8FA03E02946206801F009FA38062E
:102000003DD506EB860004EBC001206830F82620A1
:1020100002EA0A0242F4004220F8262091F82B003E
:102020002831032804D018B1022824D1F80522D47D
:102030002368B3F850200D7809EBC500024408EB83
:102040004200185A8A69C0F3090082420CD9121A58
:102050008A610BD04A6902444A61CA691044C86166
:10206000206801F0D5F90AE000208861E9B2204635
:10207000FEF76FFA03E03A462046FEF744FB20687D
:10208000B0F8441009043FF585AE0020BDE8F88F94
:1020900070477047FEF7AEB930B593B02821684657
:1020A000FEF759F814210AA8FEF755F8002401207C
:1020B0000F9410941194010412948DE8130004906D
:1020C0004FF4E010CDE90810022507956846FFF7A8
:1020D00049F808B172B6FEE70F20CDE90A054FF4C2
:1020E0008060CDE90C4002210AA80E94FEF74EFF55
:1020F00008B172B6FEE710200F9012940FA8FEF7F9
:10210000CFFE002801D072B6FEE713B030BD704795
:1021100010B501F001FEBDE810400148FFF772BBA9
:102120000C020020F0B50268164B174C174D4FF00B
:102130008047984205D0B84203D0A04201D0A842BF
:1021400003D122F070064A683243984205D0B84263
:1021500003D0A04201D0A84203D122F44074CA683F
:1021600022434C6922F08002224302608A68C262E4
:102170000A688262984201D10969016301214161C3
:10218000F0BD0000002C01400004004000080040A9
:1021900010B5846842EA032224F47F440A432243B0
:1021A000826010BD826822F070020A4342F007018B
:1021B0008160704710B503689A6822F070044A681D
:1021C000224322F007040A6822439A604A6812F008
:1021D0000F0F30D11211082A2DD2DFE802F02C2C7B
:1021E0002C2C0B2127040B69D1E902210068FFF791
:1021F000CFFF20E00A68052A10D00268136A146A2B
:1022000024F00104146202689469096924F0F0045E
:1022100044EA01119161006803620CE0012010BDE5
:102220000A698968006800F008F804E00A698968AA
:10223000006800F013F8002010BD10B5036A046AAE
:1022400024F001040462846924F0F00444EA0214D6
:1022500023F00A020A438461026210BD10B5036ACA
:1022600023F0100303628369046A23F4704343EA92
:10227000023224F0A00343EA01118261016210BD21
:1022800070B5044600680169E26821F440511143C9
:1022900001612169A0680843616908432168CA682F
:1022A00041F20C639A430243CA6020684169A26903
:1022B00021F44071114341611E492068884202D1D6
:1022C000FEF70AFF01E0FEF7F7FE00EBC00101EBAD
:1022D0000012606864218000B2FBF0F3B3FBF1F3FD
:1022E0006FF018067343B2FBF0F5B2FBF0F605EBA6
:1022F0008305322303EB0515B5FBF1F5B6FBF1F6CB
:1023000005F0F00505EB0615B2FBF0F6B2FBF0F0B8
:10231000B0FBF1F06FF01802504306EB800003EBC6
:102320000010B0FBF1F0216800F00F002844886035
:1023300070BD0000003801402DE9F0419846174675
:102340000E460446069D1DE0681C1BD02DB1FEF70D
:102350004BF8A0EB0800A84214D92068C16821F40A
:10236000D071C1602068416921F0010141612020E4
:1023700084F83D0084F83E00002084F83C000320EF
:10238000BDE8F0812068006836EA000004D0002033
:10239000B842D9D00020F3E70120F9E7D0F8B8021D
:1023A000002101750846704770B50546D0F8B8425F
:1023B000D5F8BC226178D268207890470223224663
:1023C0000121284600F094FB002070BD70B5044642
:1023D000812100F08BFA002501212046E56200F002
:1023E00085FAC4F86C51D4F8B80248B1D4F8BC02EC
:1023F00004F52E7480688047206800F0E4FD2560B5
:10240000002070BD10B5D0F8B8422169012908D16B
:10241000D0F8BC0223786178C26818469047002043
:102420002061002010BD00000A2101800048704793
:102430007C0100202921018000487047EC00002029
:1024400029210180004870471801002029210180BE
:10245000004870474401002070B50446002602235E
:102460000322812100F038FB0125022303222946A3
:102470002046E56200F030FB1820C4F86C5100F0F3
:10248000A3FDC4F8B80270B1054600202875D4F841
:10249000BC024068804702232A460121204600F002
:1024A00027FB304670BD0126FBE7024602200029CB
:1024B00002D00020C2F8BC12704710B5134690F845
:1024C0009C42D0F8B822032C09D1147D0CB1012014
:1024D00010BD012414750A46812100F0A4FB0020E0
:1024E00010BD0000F8B50022D0F8B832ADF80020D9
:1024F0000E781546144616F0600621D0202E55D1D0
:102500004A78921E0A2A51D2DFE802F00F08505092
:10251000505050130B05887858604AE00122191D6D
:1025200035E04888000A986043E0012203F1080181
:102530002DE001221A61CA88194600F063F838E0DC
:102540004E7836B1062E0BD00A2E23D00B2E2DD16D
:1025500028E090F89C22032A28D10222694616E03E
:102560004B882226B6EB132F07D1CA88392A00D907
:102570003922D0F8BC120D6808E02126B6EB132FE3
:1025800004D1CA880D4D092A00D90922294600F034
:1025900053F80EE090F89C22032A07D1012203F1A0
:1025A0000C01F4E790F89C22032A04D000F01FF8F5
:1025B00002242046F8BD8878D860FAE77001002030
:1025C00010B5D0F8B42252689047002010BD1346D1
:1025D00010B50A46002100F08BFA002010BD13460A
:1025E00010B50A46002100F01EFB002010BD10B5FA
:1025F0000446802100F0FCFA2046BDE8104000218E
:1026000000F0F6BA10B50323C0F85C21C0F894328C
:10261000C0F8602113460A46002100F069FA002044
:1026200010BD10B505210023C0F894121A461946B2
:1026300000F05EFA002010BD10B50223C261C0F8A0
:102640009432026213460A46002100F0ECFA0020A0
:1026500010BD10B504210023C0F894121A46194683
:1026600000F0E1FA002010BD10B50A46024903A0AF
:1026700000F0EEF8004810BD5C050020437573744F
:102680006F6D2048494420436F6E66696700000003
:1026900012200880004870473400002010B50A4618
:1026A000024903A000F0D4F8004810BD5C050020EA
:1026B000437573746F6D2048494420496E74657288
:1026C00066616365000000000420088000487047D0
:1026D0003000002010B50A46024903A000F0B8F807
:1026E000004810BD5C05002053544D6963726F654E
:1026F0006C656374726F6E696373000010B50A468F
:10270000024903A000F0A4F8004810BD5C050020B9
:1027100053544D333220437573746F6D2048756D7B
:10272000616E20696E746572666163650000000009
:1027300010B51A2008800A480168001D0468001DB1
:102740000068081809D008220649FFF701FA054970
:10275000042210312046FFF7FBF90248801E10BD0D
:10276000E8F7FF1F4A000020F8B504460020ADF846
:10277000000048880D46010A082948D2DFE801F028
:102780004704091747473C45D4F8B012207C0A6833
:1027900019E0207C02260028D4F8B40205D0C16AD2
:1027A00068468847014646703EE0816AF8E7C0B255
:1027B00006282CD2DFE800F0030A1014181CD4F805
:1027C000B002426805E0694690471CE0D4F8B002C8
:1027D0008268E2B1207CF6E7D4F8B002C268F8E77C
:1027E000D4F8B0020269F4E7D4F8B0024269F0E725
:1027F000D4F8B0028269ECE7207C40B9D4F8B40286
:10280000416B6846884701460EE0207C20B129468E
:102810002046FFF7ECFEF8BDD4F8B402016B684621
:102820008847014607204870BDF8000048B1EA8893
:1028300052B1824200D90246ADF800202046FFF78F
:10284000FBFEE8880028E6D12046FFF702FFF8BD2E
:1028500070B5002300281ED00446002502E06D1C40
:10286000EDB2641C2678002EF9D1022404EB450455
:1028700014801278CA545B1C0322CA5400245B1CC7
:1028800006E0CA545B1CDAB28C54521CD3B2401C12
:102890000278002AF5D170BD01004FF0000004D08D
:1028A000012901D0022901D0022070470120704780
:1028B00010B580B1D0F8B43213B10023C0F8B432EF
:1028C00009B1C0F8B012012180F89C12027000F02A
:1028D000BBF8002010BD022010BD10B5D0F8C0021A
:1028E000FDF770FEBDE81040FFF7D6BF10B5D0F879
:1028F000C002FDF741FEBDE81040FFF7CDBF2DE956
:10290000F0411746044651B1D4F8B40242691AB1F5
:1029100094F89C02032851D00220BDE8F081D4F83D
:102920009432002504F11400022B03D0042B3AD07A
:10293000C3B33CE0D0E903639E4207D9F11AC160FA
:102940008AB239462046FFF74AFE12E08068B0FBA3
:10295000F3F103FB110199B9984211D3D4F89812FD
:1029600088420DD2002211462046FFF738FEC4F8F7
:10297000985200231A461946204600F0B9F816E08E
:10298000D4F8B402C16829B194F89C02032801D19B
:10299000204688478021204600F02AF92046FFF78C
:1029A00040FE04E0FFE78021204600F021F994F882
:1029B000A002012804D184F8A05201E020469047EB
:1029C0000020AAE770B51546044649B1D4F8B40210
:1029D00082691AB194F89C02032830D0022070BD9D
:1029E000D4F8941204F5AA70032902D005291ED048
:1029F00027E0D0E903218A420BD9531AC360084665
:102A0000834200D303469AB229462046FFF7DFFDF2
:102A100017E0D4F8B402016929B194F89C020328A4
:102A200001D1204688472046FFF713FE09E0002029
:102A30000146C4F89402204600F0DAF801E020468E
:102A40009047002070BD000010B519490446C1F838
:102A5000E802C0F8C0121748086008204860022049
:102A6000886000208861C86108620846FEF72AF97C
:102A700008B1FDF7C0FB0022D4F8C00218231146AC
:102A800004F53074FDF746FD5823002280212068AC
:102A9000FDF740FD9823002281212068FDF73AFDD3
:102AA000D823002201212068FDF734FD002010BD4D
:102AB00078070020005C00400A0601F07F01D0F892
:102AC000C00201EB810100EBC10002D590F82A00A1
:102AD000704790F86A01704710B51C461346D0F84D
:102AE000C0022246FDF7A7FFBDE81040FFF7D4BEA5
:102AF00010B5D0F8C002FDF7CEFFBDE81040FFF7DB
:102B0000CBBE70B50022044640231146FFF7E4FF18
:102B100040260125C4F86461334600228021204606
:102B2000C4F85851FFF7D8FF6662A56184F89C523B
:102B30000020C4F894026060C4F8A402D4F8B8027B
:102B400028B1D4F8B4020021426820469047002002
:102B500070BD90F89C12042903D190F89D1280F862
:102B60009C120020704710B590F89C12032904D1E4
:102B7000D0F8B412C96901B18847002010BD0174B2
:102B80000020704710B5D0F8C002FEF742F9BDE84A
:102B90001040FFF781BE70B5044600F52A70054667
:102BA00000F04AF80120C4F89402B4F8AE02C4F868
:102BB000980294F8A80210F01F010AD001290DD044
:102BC000022910D000F08001204600F011F800200A
:102BD00070BD2946204600F09EF8F8E729462046B9
:102BE00000F0CAF9F3E72946204600F01DF9EEE7A8
:102BF00010B5D0F8C002FDF767FFBDE81040FFF741
:102C00004BBE10B5D0F8C002FEF71EF9BDE810406B
:102C1000FFF742BE90F89C1280F89D12042180F8C4
:102C20009C120020704710B5D0F8C002FDF785FF58
:102C3000BDE81040FFF730BE0A7802704A78427053
:102C40008A78CB7802EB032242800A794B7902EB37
:102C5000032282808A79C97902EB0121C180704701
:102C60000246002011B1C2F8B4127047022070472A
:102C700010B5D0F8B42202241AB11268904700B9F6
:102C80000024204610BD000070B50E461E4D897808
:102C900004462970012931D894F89C0202280BD0EF
:102CA00003280FD031462046FFF7A1FC29782046A3
:102CB000BDE87040FFF784BCD9B10320616084F89F
:102CC0009C0209E071B16068884212D0C1B220460E
:102CD000FFF776FC297861602046FFF7C9FF0228DC
:102CE0000CD006E0022084F89C0220466160FFF7C9
:102CF00067FC2046BDE87040FFF7ABBC314620467C
:102D0000BDE87040FFF773BCB000002010B5FFF7BE
:102D100078FF002010BD2DE9F0410A78002612F05E
:102D2000600208D0202A01D0402A70D1D0F8B42205
:102D3000926890476DE04B78002201250A2B66D2FD
:102D4000DFE803F0405D6557650805652C29FFF74E
:102D50000BFD5EE004468888D8B9C888C8B94888A1
:102D6000802816D200F07F0794F89C02032810D028
:102D700084F89E7239462046FFF704FF2046FFF78D
:102D800068FC1FB1022084F89C0242E084F89C5247
:102D90003FE020463BE0FFF777FF3AE0CB88012B8E
:102DA00035D190F89C32012B04D0022B02D0032B9A
:102DB0002DD104E08260012200F1080116E0012219
:102DC000011D13E090F89C22012A03D0022A01D0B1
:102DD000032A1CD1CA88022A19D1C560D0F8A412CE
:102DE00009B10321C160022200F10C01FFF724FCAC
:102DF0000FE0498801290CD1C0F8A45211E090F8E5
:102E00009C32012B08D0022B06D0032B04D0FFF7F5
:102E1000EEFB3046BDE8F08149880129F9D1C0F8C0
:102E2000A422FFF716FCF4E72DE9F0410A46044618
:102E300010780027097910F060030AD0202B01D008
:102E4000402B50D1D4F8B4021146836820469847ED
:102E50008FE0C0F34110012806D05078D0B301288C
:102E60002AD003283FD107E0D4F8B4021146836882
:102E70002046BDE8F041184794F89C02022802D091
:102E8000032872D10AE071B380296ED02046FFF783
:102E9000AFFE80212046FFF7ABFE6AE0508838B9CC
:102EA00031B1802904D0D08810B92046FFF7A0FEA8
:102EB0002046FFF7CEFB5CE094F89C020228E2D0AB
:102EC000032852D1508898BB4806F1D02046FFF71E
:102ED00004FDEDE7FFE794F89C020026022803D0EA
:102EE000032842D112E040E009B180293DD1080613
:102EF00001F07F0000EB800004EB800101D514316C
:102F000001E001F5AA7102220E602AE0080601F034
:102F10000F0000EB800004EB80000AD5806920B32D
:102F200001F07F0000EB800004EB800514350BE01E
:102F30001FE0D0F85801C0B101F07F0000EB800025
:102F400004EB800505F5AA7541B1802906D020461D
:102F5000FFF7B2FD10B10120286000E02E600222D0
:102F600029462046FFF768FB03E011462046FFF79D
:102F70003EFB3846BDE8F08170B5054608780C4642
:102F800010F0600003D0202801D0402816D195F819
:102F90009C02012803D0022801D003280ED12079F9
:102FA00001280BD8D5F8B402826828469047E188FA
:102FB000014306D12846FFF74CFB02E02846FFF705
:102FC00016FB002070BD7047004870475C0700206A
:102FD0002DE9F0470C78002630F8243048F68F129F
:102FE0001340CA78002A7DD0012A7CD0022A02D060
:102FF000032A7FD0012648F28002134320F82430B0
:103000000D7830F8254048F68F731C402C4314434C
:1030100020F825400D7B48F2C00C48F6BF744CF2F6
:1030200080074BF68F79EDB391F80080C24630F8F7
:10303000285048F280181D4045EA080520F82A501B
:10304000B0F8505091F80080054405EB0815B1F830
:10305000088028F00108A5F80084B0F8505091F8D5
:103060000080054405EB0815B1F80A8028F0010836
:10307000A5F808844D78002D0D7830F825804FEAAA
:1030800048487DD0B8F1000F07DA30F8258008EA0B
:10309000030848EA070820F825800F7830F8275001
:1030A0006D0600E02CE006D530F827501D4045EABB
:1030B0000C0520F82750CB780D78012B30F82530FF
:1030C00003EA040301D083F02003134320F82530E2
:1030D0000B7830F8231001EA0901114320F823107E
:1030E000304602E003E008E004E0BDE8F08743F486
:1030F000007380E743F4C0637DE743F480637AE7BD
:103100004D782DB3B0F850500F78054405EB0715F6
:10311000CF8827F00107A5F800740F7830F8275002
:103120006D0606D530F827501D4045EA0C0520F8FD
:103130002750CB78012B06D00B7830F82310214094
:1031400081F02001C9E70B7830F823102140C4E753
:10315000B0F850400D78044404EB0514CD8825F0F8
:103160000105A4F80854B0F850400D78044404EB6D
:1031700005140D6904F20C4475B13E2D14D800E01D
:1031800030E04FEA550CED0701D00CF1010C4FF681
:10319000FF7505EA8C2511E0258825F4F845258082
:1031A000258845F4004509E04FEA551CED0601D19C
:1031B000ACF1010C4FF4004545EA8C2525800D78D3
:1031C00030F82540640405D530F825401C403C43C8
:1031D00020F825400B7830F8231001EA090181F42A
:1031E00040517AE7B8F1000F07DA30F8258008EA95
:1031F000030848EA070820F825800F7830F82750A0
:103200006D0606D530F827501D4045EA0C0520F81C
:1032100027500D7830F8253003EA090383F4405332
:10322000134320F825308EE7002070472DE9F04346
:1032300091F80C804F780A7848F6BF7C4BF68F796E
:1032400048F2800348F2C0054CF2800648F68F74BD
:10325000B8F1000F28D0002F30F822704FEA47470E
:1032600048D0002F05DA30F822702740374320F885
:1032700022700A7830F822707F0605D530F8227067
:1032800027402F4320F822700D7830F82520224067
:10329000324320F825200C7830F8242002EA0C0272
:1032A0001A4320F824201AE07FB130F82260760615
:1032B00005D530F8226026402E4320F822600A7897
:1032C00030F8221001EA0C010EE030F822506D04B3
:1032D00005D530F822502540354320F822500A7891
:1032E00030F8221001EA0901194320F822100020C9
:1032F000BDE8F083002F05DA30F82270274037430D
:1033000020F822700A7830F82260760605D530F869
:10331000226026402E4320F822600E7830F82620C6
:1033200022402A4320F826200C7830F8242002EA94
:1033300009021A4320F82420C1E70020704700202A
:103340007047012120F8401F002101808180018207
:103350000846704730F8401F21F43F4101800020AB
:1033600070470020704730B50A7BB2BB4A7848F6F8
:103370008F7548F28004C2B10B7830F823205206D2
:1033800007D530F823202A4048F2C0052A4320F808
:103390002320CA78012A20D00A7830F8221048F673
:1033A000BF73194081F0200114E00A7830F8223010
:1033B0005B0407D530F822302B404CF280052B43BC
:1033C00020F822300A7830F822104BF68F7319401B
:1033D00081F44051214320F82210002030BD10B567
:1033E0004A780978002A48F2800330F8212005D075
:1033F00048F6BF74224082F0100204E04BF68F744E
:10340000224082F480521A4320F82120002010BD6F
:103410002DE9F0470E464B78097B04464FF0000932
:1034200048F68F7248F2800A4FF6FF774FF4004853
:10343000012B09D000296ED0F07802286CD0012829
:103440006BD00120BDE8F087B5693069854200D9AD
:103450000546C9B1F17848F28013022923D03178AA
:1034600034F821001040184324F82100306A401B32
:103470003062307834F82010490671787ED5002902
:103480007DD001297CD03FE1ABB2F2882046716942
:1034900000F0F6FAB4F850003178204400EB011047
:1034A000A0F80454EAE0316A81426AD9317834F8EC
:1034B00021001040184324F82100306A401B30627C
:1034C000307834F82010490671786CD511B1012993
:1034D00024D02AE0B4F85010214401EB001000F28F
:1034E0000C404DB13E2D0FD86908EA0700D0491CA9
:1034F00007EA8121018018E0018821F4F841018068
:10350000018841F40041F5E76909EA0600D1491E46
:1035100048EA8121EEE79CE1BCE126E2B4F85020C4
:10352000111901EB0010A0F80C547289ABB22046BF
:10353000716900F0A5FA7069284470613169306AD8
:10354000884202D9401B306202E00546C6F820904E
:10355000707800287CD1B4F850003178204400EB1A
:10356000011000F204406DB13E2D13D86908EA073E
:1035700000D0491C07EA8121018012E001E19BE0B3
:10358000BBE084E0018821F4F8410180018841F426
:103590000041F1E76909EA0600D1491E48EA8121A4
:1035A000EAE7328965E011B1012921D027E0B4F8BA
:1035B0005010214401EB001000F204404DB13E2DAB
:1035C0000FD86908EA0700D0491C07EA8121018069
:1035D00015E0018821F4F8410180018841F400419F
:1035E000F5E76909EA0600D1491E48EA8121EEE7BC
:1035F000B4F85010214401EB0010A0F804543289B3
:10360000ABB22046716900F03BFA706928447061E2
:103610003169306A884202D9401B306202E00546B7
:10362000C6F82090707800287ED1B4F85000317828
:10363000204400EB011000F20C4055B13E2D10D893
:103640006908EA0700D0491C07EA812101800FE0E0
:1036500072E0018821F4F8410180018841F40041C1
:10366000F4E76909EA0600D1491E48EA8121EDE73D
:103670007289ABB22046716900F002FA317834F8F1
:10368000210048F6BF72104080F03000C0E132786F
:1036900034F8220048F68F63184040EA0A0024F804
:1036A0002200B4F850003278204400EB02108BB2B4
:1036B000A0F804343289DDE7B4F85010214401EB5E
:1036C000001000F20C404DB13E2D0FD86908EA07FA
:1036D00000D0491C07EA8121018015E0018821F40E
:1036E000F8410180018841F40041F5E76909EA06E3
:1036F00000D1491E48EA8121EEE7B4F850201119A3
:1037000001EB0010A0F80C547289ABB2204671692D
:1037100000F0B6F97069284470613169306A8842F6
:1037200003D9401B306203E06EE00546C6F82090E6
:10373000002DA3D0707858B101287FF41EAFB4F8E3
:1037400050003178204400EB0110A0F8045428E721
:10375000B4F850003178204400EB011101F204412B
:103760003E2D06D86808EA0700D0401C07EA8020F2
:1037700005E06809EA0600D1401E48EA802008807A
:103780000FE711B1012921D027E0B4F850102144EE
:1037900001EB001000F204404DB13E2D0FD8690836
:1037A000EA0700D0491C07EA8121018015E0018861
:1037B00021F4F8410180018841F40041F5E76909ED
:1037C000EA0600D1491E48EA8121EEE7B4F850101C
:1037D000214401EB0010A0F804543289ABB220461A
:1037E000716900F04DF97069284470613169306A7F
:1037F000884202D9401B306202E00546C6F820909C
:10380000002D96D0707858B101287FF420AFB4F81D
:1038100050100819317800EB0110A0F80C5427E77C
:10382000B4F850003178204400EB011101F20C4152
:103830003E2D06D86808EA0700D0401C07EA802021
:1038400005E06809EA0600D1401E48EA80200880A9
:103850000EE7B1693069814202D9091AB161B5E058
:103860000846C6F81890B1E0088820F4F8400880AF
:10387000088840F400400BE03E2875D84208C00795
:1038800000D0521C07EA822002E000BF48EA8220F2
:103890000880B5E093B9B4F850003178204400EBCB
:1038A0000110316900F2044069B13E2913D84B0878
:1038B000C90700D05B1C07EA83210180707888B1BA
:1038C000012832D03AE0018821F4F84101800188D2
:1038D00041F40041F1E74B09C90600D15B1E48EAFB
:1038E0008321EAE7B4F850003178204400EB01105E
:1038F000316900F20C4049B13E290FD84B08C90785
:1039000000D05B1C07EA8321018017E0018821F4C5
:10391000F8410180018841F40041F5E74B09C906EF
:1039200000D15B1E48EA8321EEE7B4F85010081975
:10393000317800EB0110318AA0F80C14F069A8B3BB
:10394000317834F82100430401D5430603D444F20E
:103950004003184254D134F82100104048F2C0020C
:10396000104324F821004BE03CE0B169306981420A
:1039700002D9091AB16102E00846C6F818908BB95D
:10398000B4F850103278214401EB021101F20441E5
:1039900068B13E2813D84208C30700D0521C07EA7A
:1039A00082220A80717889B1012921D028E00A8811
:1039B00022F4F8420A800A8842F40042F1E7420900
:1039C000C30600D1521E48EA8222EAE7B4F850103A
:1039D0003278214401EB021101F20C4100287FF4FE
:1039E0004BAF41E74209C0067FF450AF521E4DE78E
:1039F000B4F850201119327801EB0211A1F80C042F
:103A0000317834F821004BF68F72104080F440502A
:103A100040EA0A0024F82100002013E50021A0F864
:103A200044104FF43F41A0F84010002070470000C0
:103A30000148FDF79CB8000078070020B0F844006A
:103A40007047000010B500EB42005C0800F5806094
:103A500009D000BF30F8042B01F8012B120A01F83D
:103A6000012B641EF6D1DA0701D00088087010BD62
:103A70000020704711B98021A0F84C100020704739
:103A800010B55B1C00EB42005B0800F5806009D0BC
:103A900011F8012B11F8014B42EA042220F8042B03
:103AA0005B1EF5D110BDFEE7014A024900F023B8C4
:103AB000193B0008880100200907090E002804DBD3
:103AC00000F1E02080F80014704700F00F0000F1D2
:103AD000E02080F8141D704702E008C8121F08C1DA
:103AE000002AFAD170477047002001E001C1121F7F
:103AF000002AFBD170472DE9F04116460F460446D7
:103B0000002503E03946B047641C6D1C207800286E
:103B1000F8D12846BDE8F08113B54FF6FF730122B6
:103B200069460248FDF7BAFF00981CBD5402002008
:103B30003EB5002100910191029107E000BF00BF56
:103B4000022200BF521C082AFBDB491C8142F5D32C
:103B500000F01AF8002808D000216B46425C5C5C3B
:103B600022434254491C0C29F8DB3EBD044903485A
:103B70000022086008210348FCF730BCB401002093
:103B800000000020000C014070B51C4C206800288B
:103B900032D0FF220C211A48FCF7D6FA194E012226
:103BA00010213046FCF71AFC2068154D0C21856366
:103BB000C1870068016841F0400101600DE00168C3
:103BC0008A68D20709D0097B806B01702068816BFD
:103BD000491C8163C18F491EC1872068C18F00299C
:103BE000EDD10068016821F0400101600022102140
:103BF0003046FCF7F3FB681C70BD0000000000209D
:103C00008C010020000C01400248C07800F0010047
:103C100070470000980100202DE9F047DFF8F0C060
:103C20000021ACF101003B4FC160016181828175CF
:103C300008460CF10B044FF00109002101EBC0060E
:103C400037F91620D31702EB5375EB1025F0070553
:103C5000A2EB0508572E12DA08EBC302572A0EDA38
:103C60001CF8033009FA08F24D469A4303D0225C4F
:103C70008D402A432254491C09B20829DEDB401C2E
:103C800000B20B28D9DBFFF7BFFF08B1022500E027
:103C900001251F4810211630FCF75DFA002357203C
:103CA00045434E4607EB45075FF0000101EBC300BB
:103CB000324637F91050E81705EB507C06EBEC0064
:103CC0002CF0070CB5EB0C0503D508352DB2401EC2
:103CD00001E0642812DC14F8038002FA01FC18EAFF
:103CE0000C0F0BD0DFF8288006FA05F208F1160851
:103CF00018F800C04CEA020C08F800C0491C08295A
:103D0000D4DB5B1C0B2BCFDB01481630BDE8F08702
:103D10008D010020803D000810B5FFF735FF6420BD
:103D2000FFF706FFFFF778FF0146BDE810401022BD
:103D30000148FEF7C2BB000098020020FCF762FBBE
:103D4000FEF7AAF9FDF720FFFDF768FFFDF7CEFFAC
:103D5000FDF7E8FFFDF788FFFFF708FF03A0FFF777
:103D6000A3FE0648FDF7B6FCFEE7000055534220CF
:103D70004B6579626F6172640D0A00000C020020CD
:103D8000080009000A000B000F000E000D000C00D7
:103D90000000010002000300040005000600070007
:103DA000530052004B00410040003B003F003000F8
:103DB0003400200024002500260014001500160001
:103DC000170051004A004D00420047003A003E00F3
:103DD00031002800210022002300270010001100DC
:103DE00012001300500049004E0043004600390005
:103DF0003D003200350029002C002D001C0054002D
:103E000048004F00450044003800330037003600BA
:103E10002A002E0019001D00550056004C003C00E1
:103E20002B002F0018001A001B001F001E00290085
:103E30003A003B003C003D003E003F004000410096
:103E4000420043004400450046004700480035005A
:103E50001E001F0020002100220023002400250056
:103E6000260027002D002E002A0049004A004B00A2
:103E70002B0014001A000800150017001C00180081
:103E80000C00120013002F00300031004C004D00D8
:103E90004E00390004001600070009000A000B005C
:103EA0000D000E000F00330034002800F9FF1D0044
:103EB0001B00060019000500110010003600370035
:103EC0003800FDFF5200F8FFFBFFFAFF2C00FEFF59
:103ED000FFFFE803FCFF500051004F0029003A00AB
:103EE0003B003C003D003E003F00400041004200DE
:103EF00043004400450048004700480035001E00CC
:103F00001F0020002100220023002400250026009D
:103F100027002D002E002A0049004A004B002B00EC
:103F200014001A000800150017001C0018000C00EF
:103F3000120013002F00300031004C004D004E00E5
:103F4000390004001600070009000A000B000D00EC
:103F50000E000F00330034002800F9FF1D001B0085
:103F60000600190005001100100036003700380067
:103F7000FDFF5200F8FFFBFFFAFF2C00FEFFFFFFE2
:103F8000E803FCFF500051004F000000000000005B
:103F900000000102030406070809000000000102F6
:103FA00003040000C43F0008000000208C01000052
:103FB00090010008A04000088C010020DC0C0000EB
:103FC000E83A000841320182101324F41391261BB1
:103FD00008C9041AD5041AFD041331271B086908FF
:103FE0001A9D0417040309041201320216408304C7
:103FF00050571D0201020341031A1A031012050152
:104000000906A10175019508050719E029E715289A
:104010000925018102957875010A1914111B297768
:104020001030130575010508190129059102950144
:1040300075039103C022641420ED011B08E9041AE2
:10404000F104411359241408CD231B08E5083960F5
:1040500019081A9D101AA904C11A41181A35041A10
:104060004D041A29041409022913010125C032093B
:104070000419B6120115092111011401223916077C
:10408000058103022D050705010731D92C291209E5
:10409000442C691A31130A063202734001000000F1
:04000005080000ED02
:00000001FF
